{
  "contractName": "Authentication",
  "abi": [
    {
      "constant": true,
      "inputs": [],
      "name": "Hash",
      "outputs": [
        {
          "internalType": "bytes32",
          "name": "",
          "type": "bytes32"
        }
      ],
      "payable": false,
      "stateMutability": "view",
      "type": "function"
    },
    {
      "constant": true,
      "inputs": [],
      "name": "imeiHash",
      "outputs": [
        {
          "internalType": "bytes32",
          "name": "",
          "type": "bytes32"
        }
      ],
      "payable": false,
      "stateMutability": "view",
      "type": "function"
    },
    {
      "constant": true,
      "inputs": [],
      "name": "userCount",
      "outputs": [
        {
          "internalType": "uint256",
          "name": "",
          "type": "uint256"
        }
      ],
      "payable": false,
      "stateMutability": "view",
      "type": "function"
    },
    {
      "constant": true,
      "inputs": [
        {
          "internalType": "uint256",
          "name": "",
          "type": "uint256"
        }
      ],
      "name": "users",
      "outputs": [
        {
          "internalType": "bytes32",
          "name": "imeiHash",
          "type": "bytes32"
        },
        {
          "internalType": "uint256",
          "name": "currentLocation",
          "type": "uint256"
        },
        {
          "internalType": "bool",
          "name": "covidStatus",
          "type": "bool"
        }
      ],
      "payable": false,
      "stateMutability": "view",
      "type": "function"
    },
    {
      "constant": false,
      "inputs": [
        {
          "internalType": "uint256",
          "name": "_phnID",
          "type": "uint256"
        },
        {
          "internalType": "uint256",
          "name": "location",
          "type": "uint256"
        },
        {
          "internalType": "bool",
          "name": "status",
          "type": "bool"
        }
      ],
      "name": "Register",
      "outputs": [],
      "payable": false,
      "stateMutability": "nonpayable",
      "type": "function"
    },
    {
      "constant": false,
      "inputs": [
        {
          "internalType": "uint256",
          "name": "_phnID",
          "type": "uint256"
        }
      ],
      "name": "removeUser",
      "outputs": [],
      "payable": false,
      "stateMutability": "nonpayable",
      "type": "function"
    }
  ],
  "bytecode": "0x608060405234801561001057600080fd5b5061049b806100206000396000f3fe608060405234801561001057600080fd5b50600436106100625760003560e01c806307973ccf1461006757806311dc470314610085578063365b98b2146100b3578063428b24d514610107578063aa6d7de414610125578063d6c66a3314610143575b600080fd5b61006f610187565b6040518082815260200191505060405180910390f35b6100b16004803603602081101561009b57600080fd5b810190808035906020019092919050505061018d565b005b6100df600480360360208110156100c957600080fd5b81019080803590602001909291905050506102d5565b6040518084815260200183815260200182151515158152602001935050505060405180910390f35b61010f61030c565b6040518082815260200191505060405180910390f35b61012d610312565b6040518082815260200191505060405180910390f35b6101856004803603606081101561015957600080fd5b810190808035906020019092919080359060200190929190803515159060200190929190505050610318565b005b60035481565b806000819055506002600054604051602001808281526020019150506040516020818303038152906040526040518082805190602001908083835b602083106101eb57805182526020820191506020810190506020830392506101c8565b6001836020036101000a038019825116818451168082178552505050505050905001915050602060405180830381855afa15801561022d573d6000803e3d6000fd5b5050506040513d602081101561024257600080fd5b810190808051906020019092919050505060028190555060008090505b6003548110156102d157600254600460008381526020019081526020016000206000015414156102c4576004600082815260200190815260200160002060008082016000905560018201600090556002820160006101000a81549060ff021916905550505b808060010191505061025f565b5050565b60046020528060005260406000206000915090508060000154908060010154908060020160009054906101000a900460ff16905083565b60015481565b60025481565b826000819055506002600054604051602001808281526020019150506040516020818303038152906040526040518082805190602001908083835b602083106103765780518252602082019150602081019050602083039250610353565b6001836020036101000a038019825116818451168082178552505050505050905001915050602060405180830381855afa1580156103b8573d6000803e3d6000fd5b5050506040513d60208110156103cd57600080fd5b810190808051906020019092919050505060018190555060036000815480929190600101919050555060405180606001604052806001548152602001838152602001821515815250600460006003548152602001908152602001600020600082015181600001556020820151816001015560408201518160020160006101000a81548160ff02191690831515021790555090505050505056fea265627a7a72315820ef419d43e0cb218b3d09590cec3c525a84923f57b16c2856fae72c8e6484669b64736f6c63430005100032",
  "source": "pragma solidity >=0.4.21 <0.7.0;\r\n\r\ncontract Authentication {\r\n    uint private imei;\r\n    bytes32 public imeiHash;\r\n    bytes32 public Hash;\r\n    struct User {\r\n        bytes32 imeiHash;\r\n        uint currentLocation;\r\n        bool covidStatus; \r\n    }\r\n    uint public userCount;\r\n    mapping(uint => User) public users;\r\n\r\n    function Register(uint _phnID,uint location, bool status) public{\r\n        imei = _phnID;\r\n        imeiHash = sha256(abi.encode(imei));\r\n        userCount++ ;\r\n        users[userCount] = User(imeiHash,location,status);\r\n    }\r\n\r\n    function removeUser(uint _phnID) public{\r\n        // asd =10;\r\n        // imei =10;\r\n        imei = _phnID;\r\n        Hash = sha256(abi.encode(imei));\r\n        for(uint i=0;i<userCount;i++){\r\n            // users[3].covidStatus=true;\r\n            if (users[i].imeiHash==Hash){\r\n                delete(users[i]);\r\n                // users[i].covidStatus=true;\r\n            }            \r\n        }\r\n    }\r\n    \r\n}",
  "sourcePath": "D:/Conctact Tracing App/contracts/Authentication.sol",
  "compiler": {
    "name": "solc",
    "version": "0.5.16+commit.9c3226ce.Emscripten.clang"
  },
  "schemaVersion": "3.3.4",
  "updatedAt": "2021-03-17T21:29:13.585Z",
  "networkType": "ethereum",
  "devdoc": {
    "methods": {}
  },
  "userdoc": {
    "methods": {}
  }
}