{
  "contractName": "Authentication",
  "abi": [
    {
      "constant": true,
      "inputs": [
        {
          "internalType": "bytes32",
          "name": "",
          "type": "bytes32"
        }
      ],
      "name": "questionStructs",
      "outputs": [
        {
          "internalType": "bytes32",
          "name": "text",
          "type": "bytes32"
        }
      ],
      "payable": false,
      "stateMutability": "view",
      "type": "function"
    },
    {
      "constant": false,
      "inputs": [
        {
          "internalType": "bytes32",
          "name": "questionKey",
          "type": "bytes32"
        },
        {
          "internalType": "bytes32",
          "name": "text",
          "type": "bytes32"
        }
      ],
      "name": "newQuestion",
      "outputs": [
        {
          "internalType": "bool",
          "name": "success",
          "type": "bool"
        }
      ],
      "payable": false,
      "stateMutability": "nonpayable",
      "type": "function"
    },
    {
      "constant": true,
      "inputs": [
        {
          "internalType": "bytes32",
          "name": "questionKey",
          "type": "bytes32"
        }
      ],
      "name": "getQuestion",
      "outputs": [
        {
          "internalType": "bytes32",
          "name": "wording",
          "type": "bytes32"
        },
        {
          "internalType": "uint256",
          "name": "answerCount",
          "type": "uint256"
        }
      ],
      "payable": false,
      "stateMutability": "view",
      "type": "function"
    },
    {
      "constant": false,
      "inputs": [
        {
          "internalType": "bytes32",
          "name": "questionKey",
          "type": "bytes32"
        },
        {
          "internalType": "bytes32",
          "name": "answerKey",
          "type": "bytes32"
        },
        {
          "internalType": "bytes32",
          "name": "answerText",
          "type": "bytes32"
        }
      ],
      "name": "addAnswer",
      "outputs": [
        {
          "internalType": "bool",
          "name": "success",
          "type": "bool"
        }
      ],
      "payable": false,
      "stateMutability": "nonpayable",
      "type": "function"
    },
    {
      "constant": true,
      "inputs": [
        {
          "internalType": "bytes32",
          "name": "questionKey",
          "type": "bytes32"
        },
        {
          "internalType": "bytes32",
          "name": "answerKey",
          "type": "bytes32"
        }
      ],
      "name": "getQuestionAnswer",
      "outputs": [
        {
          "internalType": "bytes32",
          "name": "answerText",
          "type": "bytes32"
        },
        {
          "internalType": "uint256",
          "name": "answerVoteCount",
          "type": "uint256"
        }
      ],
      "payable": false,
      "stateMutability": "view",
      "type": "function"
    },
    {
      "constant": true,
      "inputs": [],
      "name": "getQuestionCount",
      "outputs": [
        {
          "internalType": "uint256",
          "name": "questionCount",
          "type": "uint256"
        }
      ],
      "payable": false,
      "stateMutability": "view",
      "type": "function"
    },
    {
      "constant": true,
      "inputs": [
        {
          "internalType": "uint256",
          "name": "row",
          "type": "uint256"
        }
      ],
      "name": "getQuestionAtIndex",
      "outputs": [
        {
          "internalType": "bytes32",
          "name": "questionkey",
          "type": "bytes32"
        }
      ],
      "payable": false,
      "stateMutability": "view",
      "type": "function"
    },
    {
      "constant": true,
      "inputs": [
        {
          "internalType": "bytes32",
          "name": "questionKey",
          "type": "bytes32"
        }
      ],
      "name": "getQuestionAnswerCount",
      "outputs": [
        {
          "internalType": "uint256",
          "name": "answerCount",
          "type": "uint256"
        }
      ],
      "payable": false,
      "stateMutability": "view",
      "type": "function"
    },
    {
      "constant": true,
      "inputs": [
        {
          "internalType": "bytes32",
          "name": "questionKey",
          "type": "bytes32"
        },
        {
          "internalType": "uint256",
          "name": "answerRow",
          "type": "uint256"
        }
      ],
      "name": "getQuestionAnswerAtIndex",
      "outputs": [
        {
          "internalType": "bytes32",
          "name": "answerKey",
          "type": "bytes32"
        }
      ],
      "payable": false,
      "stateMutability": "view",
      "type": "function"
    }
  ],
  "bytecode": "0x608060405234801561001057600080fd5b5061054f806100206000396000f3fe608060405234801561001057600080fd5b50600436106100935760003560e01c806380a1922f1161006657806380a1922f146101bf578063827e30a714610212578063cd27363c14610254578063dd41cc2f146102ae578063ee7bbd95146102cc57610093565b80631b8e1d421461009857806335379a37146100da57806358c039cd146101265780637be3db231461016f575b600080fd5b6100c4600480360360208110156100ae57600080fd5b810190808035906020019092919050505061030e565b6040518082815260200191505060405180910390f35b610110600480360360408110156100f057600080fd5b81019080803590602001909291908035906020019092919050505061032c565b6040518082815260200191505060405180910390f35b6101526004803603602081101561013c57600080fd5b8101908080359060200190929190505050610361565b604051808381526020018281526020019250505060405180910390f35b6101a56004803603604081101561018557600080fd5b81019080803590602001909291908035906020019092919050505061039c565b604051808215151515815260200191505060405180910390f35b6101f5600480360360408110156101d557600080fd5b8101908080359060200190929190803590602001909291905050506103ee565b604051808381526020018281526020019250505060405180910390f35b61023e6004803603602081101561022857600080fd5b8101908080359060200190929190505050610450565b6040518082815260200191505060405180910390f35b6102946004803603606081101561026a57600080fd5b81019080803590602001909291908035906020019092919080359060200190929190505050610471565b604051808215151515815260200191505060405180910390f35b6102b66104eb565b6040518082815260200191505060405180910390f35b6102f8600480360360208110156102e257600080fd5b81019080803590602001909291905050506104f8565b6040518082815260200191505060405180910390f35b60006020528060005260406000206000915090508060000154905081565b6000806000848152602001908152602001600020600101828154811061034e57fe5b9060005260206000200154905092915050565b600080600080848152602001908152602001600020600001546000808581526020019081526020016000206001018054905091509150915091565b6000816000808581526020019081526020016000206000018190555060018390806001815401808255809150509060018203906000526020600020016000909192909190915055506001905092915050565b600080600080858152602001908152602001600020600201600084815260200190815260200160002060000154600080868152602001908152602001600020600201600085815260200190815260200160002060010154915091509250929050565b60006001828154811061045f57fe5b90600052602060002001549050919050565b600080600085815260200190815260200160002060010183908060018154018082558091505090600182039060005260206000200160009091929091909150555081600080868152602001908152602001600020600201600085815260200190815260200160002060000181905550600190509392505050565b6000600180549050905090565b600080600083815260200190815260200160002060010180549050905091905056fea265627a7a7231582009ee28b4168cfe57f52de0c198da2a1bdd99a5605dc9dd9dad9ad2fcc833397564736f6c63430005100032",
  "source": "pragma solidity >=0.4.21 <0.7.0;\r\n\r\ncontract Authentication {\r\n    struct Answer\r\n    {\r\n        bytes32 text; \r\n        uint voteCount; // number of accumulated votes\r\n        // add more non-key fields as needed\r\n    }\r\n\r\n    struct Question\r\n    {\r\n        bytes32 text;\r\n        bytes32[] answerList; // list of answer keys so we can look them up\r\n        mapping(bytes32 => Answer) answerStructs; // random access by question key and answer key\r\n        // add more non-key fields as needed\r\n    }\r\n\r\n    mapping(bytes32 => Question) public questionStructs; // random access by question key\r\n    bytes32[] questionList; // list of question keys so we can enumerate them\r\n\r\n    function newQuestion(bytes32 questionKey, bytes32 text) \r\n        // onlyOwner\r\n        public\r\n        returns(bool success)\r\n    {\r\n        // not checking for duplicates\r\n        questionStructs[questionKey].text = text;\r\n        questionList.push(questionKey);\r\n        return true;\r\n    }\r\n\r\n    function getQuestion(bytes32 questionKey)\r\n        public\r\n        view\r\n        returns(bytes32 wording, uint answerCount)\r\n    {\r\n        return(questionStructs[questionKey].text, questionStructs[questionKey].answerList.length);\r\n    }\r\n\r\n    function addAnswer(bytes32 questionKey, bytes32 answerKey, bytes32 answerText)\r\n        // onlyOwner\r\n        public\r\n        returns(bool success)\r\n    {\r\n        questionStructs[questionKey].answerList.push(answerKey);\r\n        questionStructs[questionKey].answerStructs[answerKey].text = answerText;\r\n        // answer vote will init to 0 without our help\r\n        return true;\r\n    }\r\n\r\n    function getQuestionAnswer(bytes32 questionKey, bytes32 answerKey)\r\n        public\r\n        view\r\n        returns(bytes32 answerText, uint answerVoteCount)\r\n    {\r\n        return(\r\n            questionStructs[questionKey].answerStructs[answerKey].text,\r\n            questionStructs[questionKey].answerStructs[answerKey].voteCount);\r\n    }\r\n\r\n    function getQuestionCount()\r\n        public\r\n        view\r\n        returns(uint questionCount)\r\n    {\r\n        return questionList.length;\r\n    }\r\n\r\n    function getQuestionAtIndex(uint row)\r\n        public\r\n        view\r\n        returns(bytes32 questionkey)\r\n    {\r\n        return questionList[row];\r\n    }\r\n\r\n    function getQuestionAnswerCount(bytes32 questionKey)\r\n        public\r\n        view\r\n        returns(uint answerCount)\r\n    {\r\n        return(questionStructs[questionKey].answerList.length);\r\n    }\r\n\r\n    function getQuestionAnswerAtIndex(bytes32 questionKey, uint answerRow)\r\n        public\r\n        view\r\n        returns(bytes32 answerKey)\r\n    {\r\n        return(questionStructs[questionKey].answerList[answerRow]);\r\n    }  \r\n}",
  "sourcePath": "D:/Conctact Tracing App/contracts/Authentication.sol",
  "compiler": {
    "name": "solc",
    "version": "0.5.16+commit.9c3226ce.Emscripten.clang"
  },
  "schemaVersion": "3.3.4",
  "updatedAt": "2021-06-09T19:30:09.998Z",
  "networkType": "ethereum",
  "devdoc": {
    "methods": {}
  },
  "userdoc": {
    "methods": {}
  }
}