{
  "contractName": "Authentication",
  "abi": [
    {
      "constant": true,
      "inputs": [
        {
          "internalType": "string",
          "name": "",
          "type": "string"
        },
        {
          "internalType": "uint256",
          "name": "",
          "type": "uint256"
        }
      ],
      "name": "BTdatas",
      "outputs": [
        {
          "internalType": "string",
          "name": "bt_id",
          "type": "string"
        },
        {
          "internalType": "uint256",
          "name": "timestamps",
          "type": "uint256"
        }
      ],
      "payable": false,
      "stateMutability": "view",
      "type": "function"
    },
    {
      "constant": true,
      "inputs": [],
      "name": "userCount",
      "outputs": [
        {
          "internalType": "uint256",
          "name": "",
          "type": "uint256"
        }
      ],
      "payable": false,
      "stateMutability": "view",
      "type": "function"
    },
    {
      "constant": true,
      "inputs": [
        {
          "internalType": "string",
          "name": "",
          "type": "string"
        }
      ],
      "name": "users",
      "outputs": [
        {
          "internalType": "bool",
          "name": "covidStatus",
          "type": "bool"
        },
        {
          "internalType": "uint256",
          "name": "BTcount",
          "type": "uint256"
        },
        {
          "internalType": "string",
          "name": "check",
          "type": "string"
        }
      ],
      "payable": false,
      "stateMutability": "view",
      "type": "function"
    },
    {
      "constant": false,
      "inputs": [
        {
          "internalType": "string",
          "name": "B_ID",
          "type": "string"
        },
        {
          "internalType": "bool",
          "name": "status",
          "type": "bool"
        }
      ],
      "name": "Register",
      "outputs": [],
      "payable": false,
      "stateMutability": "nonpayable",
      "type": "function"
    },
    {
      "constant": false,
      "inputs": [
        {
          "internalType": "string",
          "name": "B_ID",
          "type": "string"
        }
      ],
      "name": "removeUser",
      "outputs": [],
      "payable": false,
      "stateMutability": "nonpayable",
      "type": "function"
    },
    {
      "constant": false,
      "inputs": [
        {
          "internalType": "string",
          "name": "oldB_ID",
          "type": "string"
        },
        {
          "internalType": "string",
          "name": "newB_ID",
          "type": "string"
        }
      ],
      "name": "update_BID",
      "outputs": [],
      "payable": false,
      "stateMutability": "nonpayable",
      "type": "function"
    },
    {
      "constant": false,
      "inputs": [
        {
          "internalType": "string",
          "name": "B_ID",
          "type": "string"
        },
        {
          "internalType": "bool",
          "name": "status",
          "type": "bool"
        }
      ],
      "name": "update_status",
      "outputs": [],
      "payable": false,
      "stateMutability": "nonpayable",
      "type": "function"
    },
    {
      "constant": false,
      "inputs": [
        {
          "internalType": "string",
          "name": "B_Id",
          "type": "string"
        },
        {
          "internalType": "string",
          "name": "btids",
          "type": "string"
        },
        {
          "internalType": "uint256",
          "name": "timestamps",
          "type": "uint256"
        }
      ],
      "name": "updateBData",
      "outputs": [],
      "payable": false,
      "stateMutability": "nonpayable",
      "type": "function"
    }
  ],
  "bytecode": "0x608060405234801561001057600080fd5b5061161c806100206000396000f3fe608060405234801561001057600080fd5b50600436106100885760003560e01c8063689e1c031161005b578063689e1c0314610372578063a9ff18e0146104b8578063b9b4f86814610614578063c1bf85f0146106db57610088565b806307973ccf1461008d578063136ded3b146100ab578063600cee7814610172578063675988f01461022d575b600080fd5b61009561082d565b6040518082815260200191505060405180910390f35b610170600480360360408110156100c157600080fd5b81019080803590602001906401000000008111156100de57600080fd5b8201836020820111156100f057600080fd5b8035906020019184600183028401116401000000008311171561011257600080fd5b91908080601f016020809104026020016040519081016040528093929190818152602001838380828437600081840152601f19601f820116905080830192505050505050509192919290803515159060200190929190505050610833565b005b61022b6004803603602081101561018857600080fd5b81019080803590602001906401000000008111156101a557600080fd5b8201836020820111156101b757600080fd5b803590602001918460018302840111640100000000831117156101d957600080fd5b91908080601f016020809104026020016040519081016040528093929190818152602001838380828437600081840152601f19601f8201169050808301925050505050505091929192905050506109ec565b005b6102f06004803603604081101561024357600080fd5b810190808035906020019064010000000081111561026057600080fd5b82018360208201111561027257600080fd5b8035906020019184600183028401116401000000008311171561029457600080fd5b91908080601f016020809104026020016040519081016040528093929190818152602001838380828437600081840152601f19601f82011690508083019250505050505050919291929080359060200190929190505050610ba4565b6040518080602001838152602001828103825284818151815260200191508051906020019080838360005b8381101561033657808201518184015260208101905061031b565b50505050905090810190601f1680156103635780820380516001836020036101000a031916815260200191505b50935050505060405180910390f35b61042b6004803603602081101561038857600080fd5b81019080803590602001906401000000008111156103a557600080fd5b8201836020820111156103b757600080fd5b803590602001918460018302840111640100000000831117156103d957600080fd5b91908080601f016020809104026020016040519081016040528093929190818152602001838380828437600081840152601f19601f820116905080830192505050505050509192919290505050610c83565b604051808415151515815260200183815260200180602001828103825283818151815260200191508051906020019080838360005b8381101561047b578082015181840152602081019050610460565b50505050905090810190601f1680156104a85780820380516001836020036101000a031916815260200191505b5094505050505060405180910390f35b610612600480360360608110156104ce57600080fd5b81019080803590602001906401000000008111156104eb57600080fd5b8201836020820111156104fd57600080fd5b8035906020019184600183028401116401000000008311171561051f57600080fd5b91908080601f016020809104026020016040519081016040528093929190818152602001838380828437600081840152601f19601f8201169050808301925050505050505091929192908035906020019064010000000081111561058257600080fd5b82018360208201111561059457600080fd5b803590602001918460018302840111640100000000831117156105b657600080fd5b91908080601f016020809104026020016040519081016040528093929190818152602001838380828437600081840152601f19601f82011690508083019250505050505050919291929080359060200190929190505050610d68565b005b6106d96004803603604081101561062a57600080fd5b810190808035906020019064010000000081111561064757600080fd5b82018360208201111561065957600080fd5b8035906020019184600183028401116401000000008311171561067b57600080fd5b91908080601f016020809104026020016040519081016040528093929190818152602001838380828437600081840152601f19601f820116905080830192505050505050509192919290803515159060200190929190505050610fd5565b005b61082b600480360360408110156106f157600080fd5b810190808035906020019064010000000081111561070e57600080fd5b82018360208201111561072057600080fd5b8035906020019184600183028401116401000000008311171561074257600080fd5b91908080601f016020809104026020016040519081016040528093929190818152602001838380828437600081840152601f19601f820116905080830192505050505050509192919290803590602001906401000000008111156107a557600080fd5b8201836020820111156107b757600080fd5b803590602001918460018302840111640100000000831117156107d957600080fd5b91908080601f016020809104026020016040519081016040528093929190818152602001838380828437600081840152601f19601f82011690508083019250505050505050919291929050505061105d565b005b60005481565b6002826040518082805190602001908083835b602083106108695780518252602082019150602081019050602083039250610846565b6001836020036101000a038019825116818451168082178552505050505050905001915050908152602001604051809103902050806001836040518082805190602001908083835b602083106108d457805182526020820191506020810190506020830392506108b1565b6001836020036101000a038019825116818451168082178552505050505050905001915050908152602001604051809103902060000160006101000a81548160ff0219169083151502179055506040518060400160405280600a81526020017f72656769737465726564000000000000000000000000000000000000000000008152506001836040518082805190602001908083835b6020831061098d578051825260208201915060208101905060208303925061096a565b6001836020036101000a038019825116818451168082178552505050505050905001915050908152602001604051809103902060020190805190602001906109d6929190611473565b5060008081548092919060010191905055505050565b6001816040518082805190602001908083835b60208310610a2257805182526020820191506020810190506020830392506109ff565b6001836020036101000a0380198251168184511680821785525050505050509050019150509081526020016040518091039020600080820160006101000a81549060ff02191690556001820160009055600282016000610a8291906114f3565b505060008090505b6001826040518082805190602001908083835b60208310610ac05780518252602082019150602081019050602083039250610a9d565b6001836020036101000a038019825116818451168082178552505050505050905001915050908152602001604051809103902060010154811015610ba0576002826040518082805190602001908083835b60208310610b345780518252602082019150602081019050602083039250610b11565b6001836020036101000a0380198251168184511680821785525050505050509050019150509081526020016040518091039020600082815260200190815260200160002060008082016000610b8991906114f3565b600182016000905550508080600101915050610a8a565b5050565b60028280516020810182018051848252602083016020850120818352809550505050505060205280600052604060002060009150915050806000018054600181600116156101000203166002900480601f016020809104026020016040519081016040528092919081815260200182805460018160011615610100020316600290048015610c735780601f10610c4857610100808354040283529160200191610c73565b820191906000526020600020905b815481529060010190602001808311610c5657829003601f168201915b5050505050908060010154905082565b6001818051602081018201805184825260208301602085012081835280955050505050506000915090508060000160009054906101000a900460ff1690806001015490806002018054600181600116156101000203166002900480601f016020809104026020016040519081016040528092919081815260200182805460018160011615610100020316600290048015610d5e5780601f10610d3357610100808354040283529160200191610d5e565b820191906000526020600020905b815481529060010190602001808311610d4157829003601f168201915b5050505050905083565b816002846040518082805190602001908083835b60208310610d9f5780518252602082019150602081019050602083039250610d7c565b6001836020036101000a038019825116818451168082178552505050505050905001915050908152602001604051809103902060006001866040518082805190602001908083835b60208310610e0a5780518252602082019150602081019050602083039250610de7565b6001836020036101000a03801982511681845116808217855250505050505090500191505090815260200160405180910390206001015481526020019081526020016000206000019080519060200190610e65929190611473565b50806002846040518082805190602001908083835b60208310610e9d5780518252602082019150602081019050602083039250610e7a565b6001836020036101000a038019825116818451168082178552505050505050905001915050908152602001604051809103902060006001866040518082805190602001908083835b60208310610f085780518252602082019150602081019050602083039250610ee5565b6001836020036101000a0380198251168184511680821785525050505050509050019150509081526020016040518091039020600101548152602001908152602001600020600101819055506001836040518082805190602001908083835b60208310610f8a5780518252602082019150602081019050602083039250610f67565b6001836020036101000a038019825116818451168082178552505050505050905001915050908152602001604051809103902060010160008154809291906001019190505550505050565b806001836040518082805190602001908083835b6020831061100c5780518252602082019150602081019050602083039250610fe9565b6001836020036101000a038019825116818451168082178552505050505050905001915050908152602001604051809103902060000160006101000a81548160ff0219169083151502179055505050565b6001826040518082805190602001908083835b602083106110935780518252602082019150602081019050602083039250611070565b6001836020036101000a03801982511681845116808217855250505050505090500191505090815260200160405180910390206001826040518082805190602001908083835b602083106110fc57805182526020820191506020810190506020830392506110d9565b6001836020036101000a03801982511681845116808217855250505050505090500191505090815260200160405180910390206000820160009054906101000a900460ff168160000160006101000a81548160ff021916908315150217905550600182015481600101556002820181600201908054600181600116156101000203166002900461118d92919061153b565b509050506001826040518082805190602001908083835b602083106111c757805182526020820191506020810190506020830392506111a4565b6001836020036101000a0380198251168184511680821785525050505050509050019150509081526020016040518091039020600080820160006101000a81549060ff0219169055600182016000905560028201600061122791906114f3565b505060008090505b6001826040518082805190602001908083835b602083106112655780518252602082019150602081019050602083039250611242565b6001836020036101000a03801982511681845116808217855250505050505090500191505090815260200160405180910390206001015481101561146e576002836040518082805190602001908083835b602083106112d957805182526020820191506020810190506020830392506112b6565b6001836020036101000a038019825116818451168082178552505050505050905001915050908152602001604051809103902060008281526020019081526020016000206002836040518082805190602001908083835b602083106113535780518252602082019150602081019050602083039250611330565b6001836020036101000a03801982511681845116808217855250505050505090500191505090815260200160405180910390206000838152602001908152602001600020600082018160000190805460018160011615610100020316600290046113be92919061153b565b50600182015481600101559050506002836040518082805190602001908083835b6020831061140257805182526020820191506020810190506020830392506113df565b6001836020036101000a038019825116818451168082178552505050505050905001915050908152602001604051809103902060008281526020019081526020016000206000808201600061145791906114f3565b60018201600090555050808060010191505061122f565b505050565b828054600181600116156101000203166002900490600052602060002090601f016020900481019282601f106114b457805160ff19168380011785556114e2565b828001600101855582156114e2579182015b828111156114e15782518255916020019190600101906114c6565b5b5090506114ef91906115c2565b5090565b50805460018160011615610100020316600290046000825580601f106115195750611538565b601f01602090049060005260206000209081019061153791906115c2565b5b50565b828054600181600116156101000203166002900490600052602060002090601f016020900481019282601f1061157457805485556115b1565b828001600101855582156115b157600052602060002091601f016020900482015b828111156115b0578254825591600101919060010190611595565b5b5090506115be91906115c2565b5090565b6115e491905b808211156115e05760008160009055506001016115c8565b5090565b9056fea265627a7a72315820cf4557bc27642aa45eb0aa9c020a1cc91b9884917ed5edf3beb5935586bea56964736f6c63430005100032",
  "source": "pragma solidity ^0.5.8;\r\n\r\ncontract Authentication {\r\n\r\n    struct BTdata {\r\n        string bt_id;\r\n        uint256 timestamps; \r\n    }\r\n    \r\n    struct User {\r\n        bool covidStatus;\r\n        uint BTcount;\r\n        string check;\r\n    } \r\n//    12->{\r\n//        0->16\r\n//        1->14\r\n//        2->18\r\n//         }\r\n//    13->{}\r\n    uint public userCount;\r\n\r\n    mapping(string => User) public users;\r\n    mapping(string => mapping(uint => BTdata)) public BTdatas;\r\n\r\n    function Register(string memory B_ID, bool status) public{\r\n        BTdatas[B_ID];\r\n        users[B_ID].covidStatus = status;\r\n        users[B_ID].check = \"registered\";\r\n        userCount++ ;\r\n    }\r\n\r\n    function removeUser(string memory B_ID) public{\r\n        delete(users[B_ID]);\r\n        for(uint i=0;i<users[B_ID].BTcount;i++){\r\n            delete(BTdatas[B_ID][i]);\r\n        }\r\n    }\r\n\r\n    function update_BID(string memory oldB_ID, string memory newB_ID) public{\r\n        users[newB_ID]=users[oldB_ID];\r\n        delete(users[oldB_ID]);\r\n        \r\n        for(uint i=0; i<users[newB_ID].BTcount;i++){\r\n            BTdatas[newB_ID][i]=BTdatas[oldB_ID][i];\r\n            delete(BTdatas[oldB_ID][i]); }\r\n    }\r\n    \r\n    function update_status(string memory B_ID, bool status) public{\r\n        users[B_ID].covidStatus= status;\r\n    }\r\n\r\n    function updateBData(string memory B_Id, string memory btids, uint256 timestamps) public{    \r\n        BTdatas[B_Id][users[B_Id].BTcount].bt_id=btids;\r\n        BTdatas[B_Id][users[B_Id].BTcount].timestamps=timestamps;\r\n        users[B_Id].BTcount++;  \r\n    } \r\n\r\n}",
  "sourcePath": "D:/Conctact Tracing App_main/contracts/Authentication.sol",
  "compiler": {
    "name": "solc",
    "version": "0.5.16+commit.9c3226ce.Emscripten.clang"
  },
  "schemaVersion": "3.3.4",
  "updatedAt": "2021-07-30T16:37:39.278Z",
  "networkType": "ethereum",
  "devdoc": {
    "methods": {}
  },
  "userdoc": {
    "methods": {}
  }
}